:020000040800F2
:100000005007002091010008E9140008E1140008DD
:10001000E514000891040008A11800080000000081
:10002000000000000000000000000000951800081B
:100030009504000800000000ED140008991800085D
:10004000AB010008AB010008AB010008AB010008E0
:10005000AB010008AB010008AB010008AB010008D0
:10006000AB010008AB010008AB010008AB010008C0
:10007000AB010008AB010008AB010008AB010008B0
:10008000AB010008AB010008AB010008AB010008A0
:10009000AB010008AB010008AB010008AB01000890
:1000A000AB010008AB010008AB010008AB01000880
:1000B000AB010008AB010008AB010008AB01000870
:1000C000AB010008AB010008AB010008F114000807
:1000D000FD140008AB010008AB010008AB010008EB
:1000E000AB010008AB010008AB01000800F002F80A
:1000F00000F03FF80AA090E8000C82448344AAF183
:100100000107DA4501D100F034F8AFF2090EBAE880
:100110000F0013F0010F18BFFB1A43F0010318473B
:100120004419000064190000103A24BF78C878C14F
:10013000FAD8520724BF30C830C144BF04680C60ED
:10014000704700000023002400250026103A28BF35
:1001500078C1FBD8520728BF30C148BF0B60704739
:10016000642900F07D80002070471FB51FBD10B5C9
:1001700010BD00F052F91146FFF7F7FF01F092FBB6
:1001800000F070F903B4FFF7F2FF03BC00F078F958
:100190000948804709480047FEE7FEE7FEE7FEE71B
:1001A000FEE7FEE7FEE7FEE7FEE7FEE70448054957
:1001B000054A064B704700009D180008ED00000836
:1001C0005001002050070020500300205003002061
:1001D0000FB41CB5074B06AA7B44694600900598EE
:1001E00000F003F90020694600F012F91CBC5DF82C
:1001F00014FB0000350200002DE9F0410E460446D4
:10020000002020622046E168884730B3252805D0C9
:10021000D4E901219047206A401CF2E7E1682046BA
:1002200000278847050018D0A5F14100192802D8F9
:1002300020354FF400673246294620462760FFF7F5
:100240008FFF40B1012804D0F61D26F007060836BE
:10025000D8E7361DD6E72846DAE7206ABDE8F08100
:100260002DE9F0410646002410687529314616A58F
:1002700010D0AFF30080002802DA404213A507E057
:1002800031688A0701D512A502E0490704D511A5F6
:10029000012401E0AFF3008000210A2206F12407C7
:1002A00009E0B0FBF2FCB0FBF2F302FB1C003030C3
:1002B00078541846491C0028F3D123462A46304674
:1002C000BDE8F04100F032B8000000002D00000051
:1002D0002B000000200000004FF0000200B5134684
:1002E00094469646203922BFA0E80C50A0E80C5056
:1002F000B1F12001BFF4F7AF090728BFA0E80C5007
:1003000048BF0CC05DF804EB890028BF40F8042BFF
:1003100008BF704748BF20F8022B11F0804F18BF6C
:1003200000F8012B70477047704770472DE9F04780
:100330000D4699469246044600F124080168880655
:1003400004D5E06921F01001216000E00120A842FD
:1003500001DD471B00E00027A1697A1902EB0900C3
:10036000081AA0612078C00602D42046AFF30080AE
:10037000002608E0D4E901211AF806009047206A17
:10038000401C761C20624E45F4DB2078C0060AD55E
:100390002046AFF3008006E0D4E9012130209047E9
:1003A000206A401C2062381EA7F10107F4DC07E038
:1003B000D4E9012118F805009047206A401C20620A
:1003C000281EA5F10105F3DC2046AFF3008020785C
:1003D000000602D50220BDE8F0870120FBE70000FF
:1003E00001694A1C02610878704700B58FB0CDE9F9
:1003F00001310021059105497944CDE903101146E9
:100400006846FFF7F9FE0FB000BD0000E5FFFFFFF3
:100410000A6802F8010B0A607047754600F02CF874
:10042000AE4605006946534620F00700854618B0E1
:1004300020B5FFF7BBFEBDE820404FF000064FF0AF
:1004400000074FF000084FF0000BAC46ACE8C009C5
:10045000ACE8C009ACE8C009ACE8C00921F007016C
:100460008D46704710B50446AFF300802046BDE8C6
:100470001040FFF787BE00000048704720000020B2
:1004800001491820ABBEFEE72600020070470000BD
:10049000FEE700007047000080B590F821100229A7
:1004A00024D10268116821F00E0111602F21136818
:1004B000C4F202018A4240F20401C4F2020123F0B4
:1004C0000103136016DD3023C4F202039A421DD0EB
:1004D0004423C4F202039A421CD05823C4F20203FC
:1004E0009A421DD14FF4803322E000BF0421816382
:1004F000012080BD0823C4F202039A420ED01C23BF
:10050000C4F202039A420BD1102311E04FF480731E
:100510000EE000BF4FF480530AE000BF012307E064
:1005200001F1680C4FF08073624508BF4FF48013EF
:100530000B60012180F82110426B002180F820100F
:100540000AB190470021084680BD0000B0B50446BE
:1005500000F024F9054640F20000C2F200000078E5
:10056000611C18BF044400BF00F018F9401BA042F2
:10057000FAD3B0BD2DE9F04F82B00E68002E00F026
:10058000038141F20042C4F20102042340F2004E12
:10059000904208BF03234FF6FF7CC4F2010E009384
:1005A00000240123C1F2100C4FF0000A4FF00009A3
:1005B00049E000BF012704F00C030F229A402BEA08
:1005C000020207FA03F34FEA9A051A4346F8252078
:1005D000D1F804B040F20C455FEACB22DEF80820E7
:1005E00054BF22EA080242EA0802C4F20105CEF82A
:1005F00008202A685FEA8B2354BF22EA080242EAF5
:1006000008022A605FEA8B33DEF8042054BF22EA36
:10061000080242EA08025FEACB33CEF80420DEF893
:1006200000204FF0010354BF22EA080242EA080208
:10063000CEF800200E680AF1010A36FA0AF204F137
:10064000040400F0A18003FA0AF816EA080FF1D0BA
:100650004E68664512DC122E56D8DFE806F0350BE0
:100660004549555555555555555555555555554D5E
:10067000510000BFD1F80C9046E000BF4FF6FF726A
:10068000C1F2210296420FDC0022C1F21102964211
:100690001AD00022C1F21202964215D00022C1F2F5
:1006A0002102964210D02FE00022C1F2220296428F
:1006B0000AD00022C1F23102964205D00022C1F2D6
:1006C0003202964220D100BF8A684AB1012A14BF83
:1006D000C0F81480C0F810804FF0080914E000BF83
:1006E0004FF0040910E000BFCA6802F108090BE0EE
:1006F0004FF0000908E000BFCA6802F1040903E0F6
:10070000CA6802F10C0900BF22460646BAF1080F7A
:1007100024BF203A043637680F25954027EA05059F
:1007200009FA02F22A433260CA79D2067FF582AF13
:1007300041F21803C4F202031A68AEF57E7642F065
:1007400001021A601A6802F001020192019A2AF06D
:10075000030256F802B040F60002C4F201029042D1
:1007600010D040F60042C4F2010290423FF422AFA2
:1007700041F20002C4F20102009F904208BF02272A
:1007800019E700BF002716E702B0BDE8F08F0000B0
:10079000002A08BF090401617047000040F24810B8
:1007A000C2F200000068704740F2000040F24811B9
:1007B000C2F20000C2F2000100780A68104408602A
:1007C0007047000080B542F20000C4F202000168E8
:1007D00041F010010160032000F08EF80F2000F0BE
:1007E00005F800F027F8002080BD000070B540F249
:1007F0000006C2F2000640F208013278C2F200019F
:100800004FF47A730968B3FBF2F20446B1FBF2F1DC
:10081000084600F04FFE0F2C4FF0010508D838B9FC
:100820004FF0FF3021460022002500F039F87460B7
:10083000284670BD82B041F21800C4F2020001687F
:10084000022241F001010160016801F00101019102
:100850000199416841F080514160406800F080504A
:10086000009000980420C4F20100016862F31A614C
:10087000016002B070470000002848BF7047C1B255
:1008800000F01F00012202FA00F04EF20012CEF238
:10089000000242EAD10121F0030108607047000024
:1008A00010B54EF60C5CCEF2000CDCF80030C3F351
:1008B000022E8EF00704042C28BF0424BEF103038B
:1008C0004FF0FF3E0EFA04F438BF0023A1439940D5
:1008D0000EFA03F39A43114300F00F0200F1604354
:1008E0000901043A03F564436244002848BF02F159
:1008F0000C03197010BD00004EF60C51CEF2000131
:100900000A684FF6FF031A4060F30A2242F0806043
:1009100040F0FD70086070472DE9F04381B0002879
:1009200000F0858042F20008C4F202080446D8F8BC
:1009300000000D4600F0070088420CD2D8F80000F5
:1009400020F007002843C8F80000D8F8000000F0A5
:100950000700A8426BD1206841F204098107C4F264
:10096000020917D5410705D5D9F8001041F4E06117
:10097000C9F80010010705D5D9F8001041F46051FD
:10098000C9F80010D9F80010A26821F0F001114355
:10099000C9F80010C00741D1D8F8000000F00700E6
:1009A000A8420CD9D8F8000020F007002843C8F866
:1009B0000000D8F8000000F00700A84237D12068F6
:1009C000410707D5D9F80010E26821F4E06111432E
:1009D000C9F80010000708D5D9F80000216920F4F3
:1009E000605040EAC100C9F80000D9F8002002F0C8
:1009F0000C00082841F20020C0F27A0050D141F6E4
:100A00005223C2F38341C0F60003595CD2033BD4A6
:100A100040F60010C0F23D00484341E06068022803
:100A20000AD001282AD159F8041C890308D40120CE
:100A300001B0BDE8F08300BF59F8041C8901F6D568
:100A4000D9F8001021F003010843C9F80000FFF7AE
:100A5000A5FE064641F28837D9F80000616800F02B
:100A60000C00B0EB810F97D0FFF798FE801BB842C7
:100A7000F2D9032001B0BDE8F08300BF59F8041C8F
:100A80008907D4D5DCE700BFD9F8002041F6502310
:100A9000C2F34042C0F600039A5C4843B0FBF2F058
:100AA000D9F8001041F64022C1F30311C0F600024C
:100AB000515C40F2080220FA01F140F20400C2F257
:100AC00000000068C2F200021160FFF78FFE0020F4
:100AD00001B0BDE8F08300002DE9F04182B00028AC
:100AE00068D00446007841F20006C007C4F202064E
:100AF00025D0706800F00C0004281BD0706800F04E
:100B00000C00082802D17068C00313D46068002864
:100B100000F06881B0F5A02F00F07C81B0F5803F37
:100B200000F07C81306820F480303060306820F440
:100B3000802076E13068800301D56068D0B32078EA
:100B4000800718D5706810F00C0F07D0706800F09F
:100B50000C0008286ED17068C0036BD43068800721
:100B600002D52069012825D13068616920F0F8009C
:100B700040EAC1003060207800071FD42078400789
:100B800032D4E56995B1706800F00C00082840F097
:100B90008F80012D0ED07068216A00F480328A4265
:100BA00008D1616A00F47010884203D1002002B0BD
:100BB000BDE8F081012002B0BDE8F081A069002805
:100BC00062D00020C4F242200121C0F88014FFF757
:100BD000E5FD0546706A800700F18C80FFF7DEFDB9
:100BE000401B0228F6D92AE1F06910F0805808D19C
:100BF000F06940F08050F061F06900F080500090A2
:100C0000009847F20007C4F200073868C00529D4ED
:100C1000386840F480703860FFF7C0FD054600BFBB
:100C20003868C0051ED4FFF7B9FD401B6428F7D90A
:100C300005E100BF2069002840F20000C4F2422014
:100C400000F0828001210160FFF7A8FD054600BF8A
:100C5000306880073FF588AFFFF7A0FD401B0228F2
:100C6000F6D9ECE0E068002800F08080052800F06C
:100C70009780012800F09880306A20F001003062EF
:100C8000306A20F0040092E00020C4F242200021EB
:100C9000C0F88014FFF782FD054600BF706A800728
:100CA0007FF56CAFFFF77AFD401B0228F6D9C6E04E
:100CB0000027C4F2422700203866FFF76FFD022D9F
:100CC00005460BD13068800140F1BE80FFF766FD1C
:100CD000401B02284FF00300F4D968E73068800118
:100CE0007FF564AFFFF75AFD401B02284FF0030069
:100CF000F4D95CE740F20800C2F20000006844F654
:100D0000D351C1F26201A0FB0101480A019000BF6A
:100D100000BF0198411E002801913FF42FAF00BF92
:100D20000198411E002801913FF428AF00BF0198AF
:100D3000411E002801913FF421AF00BF0198411EE0
:100D400000280191E4D119E700210160FFF726FD99
:100D5000054600BF306880077FF50DAFFFF71EFD29
:100D6000401B02284FF00300F4D920E7306A20F03E
:100D700001003062306A20F004003062FFF70EFD9F
:100D8000054641F2883700BF306A800720D5FFF75B
:100D900005FD401BB8424FF00300F5D907E700BF3F
:100DA000306A40F004003062306A40F00100306286
:100DB000FFF7F4FC054641F2883700BF306A800730
:100DC00006D4FFF7EBFC401BB842F7D937E000BF71
:100DD000B8F1000F7FF4D5AEF06920F08050F061DB
:100DE000CFE600BF306820F480303060306820F4F7
:100DF00080203060FFF7D2FC054600BF30688003DA
:100E00007FF59DAEFFF7CAFC401B64284FF003003E
:100E1000F4D9CCE6306840F480203060306840F48B
:100E200080303060FFF7BAFC054600BF30688003B1
:100E30003FF585AEFFF7B2FC401B6428F6D90320CE
:100E400002B0BDE8F08100BF206AB0F5803F05D157
:100E50007168A26821F40031114371607168626A9F
:100E600021F4741111430843706001203866FFF7C4
:100E700095FC0446306880013FF598AEFFF78EFC84
:100E8000001B02284FF00300F4D990E670470000E1
:100E9000B0B584B0044600684168826812F040032F
:100EA00005D112F0010518BF11F0400512D19507C8
:100EB00008D511F0800505D0616C204604B0BDE86E
:100EC000B040084712F0600F18BF11F0200507D19D
:100ED00004B0B0BD216C204604B0BDE8B040084766
:100EE000BBB194F85130032B08D100210291C168A5
:100EF000029180680290029804B0B0BD636D43F027
:100F00000403636500230393C36803938368039317
:100F1000039B12F020020CD0626D42F00102626568
:100F20000022019282680192026822F0400202606F
:100F3000019A626D002ACBD04268890722F0E00254
:100F400042604FF0010284F851201FD0416841F205
:100F5000657521F003014160E06CC0F6000538B111
:100F60004563FFF799FA18B1606D40F04000606585
:100F7000A06C0028ACD04563FFF78EFA0028A7D0FC
:100F8000606D40F04000606504B0B0BD204604B024
:100F9000BDE8B040FFF77ABF70B538B10446406A8B
:100FA00030B10020206104F1140007E0012070BD81
:100FB0006068B0F5827F03D004F11C00002101605D
:100FC0000026A66294F8510020B9204684F85060AB
:100FD00000F038F8022084F8510094E8071001F47A
:100FE0008271036802F4044223F040030360236922
:100FF00011440CF40062114403F0020263691144CD
:1010000003F00102A369E569114403F4007211447D
:1010100005F03802256A114405F08002A56A1143E3
:1010200005F4005211430160042101EA13414160BB
:10103000C16921F40061C1610120666584F8510035
:10104000304670BDB0B586B0006843F60002C4F209
:101050000002002190420591CDE90311029131D0A7
:1010600043F20001C4F20101884264D141F2180048
:10107000C4F20200016840F6000441F480510160AE
:101080000168C4F2010401F48051019101990168E1
:1010900041F004010160006802A900F00400019021
:1010A0000198A02002900220039003200590204682
:1010B000FFF760FA402002900020CDE903002325CD
:1010C0002DE000BF41F21800C4F20200426842F471
:1010D00080424260426802F480420192019A0268B2
:1010E00042F008020260006800F0080001900198D8
:1010F0004FF43040CDE9020140F60000C4F2010097
:1011000000F58064049102A92046FFF733FA4FF4FA
:10111000804002900220039003202425059002A91C
:101120002046FFF727FA284600210022FFF7B8FBE8
:101130002846FFF7A1FB06B0B0BD000010B590F83F
:101140005130012B58D1D0F808C0BCF1000F55D157
:101150004368B3F5827F51D184461CF8503F4FF06D
:10116000040E012B8CF801E04CD090F85130042B88
:1011700002D0012B40F0868000294FF0010318BFF8
:10118000002A7AD090F8513041F2395E042B1CBF0E
:10119000052380F851300023436501638286C286AF
:1011A00081638287C287C26841F20954C0F6000E8B
:1011B000C0F60004002A41F26D52016808BF74466F
:1011C00041F29D5EC0F60002C0F6000E08BF7246F6
:1011D000C0E91042486840F0E000486008684006F6
:1011E0004BD40868002340F04000086000208CF8D1
:1011F0000000184610BD00BF02233CE090F85030BC
:10120000012B01D1022010BD00294FF0010318BFAE
:10121000002A30D0042380F85130002343658163D5
:101220008287C28703638386C386C26841F2717472
:10123000016841F2917EC0F60004002AC0F6000E5B
:1012400008BF7446BCF5004F0464436407D10A68C4
:1012500022F040020A600A6822F480420A604A686A
:1012600042F060024A600A68520603D40A6842F0FB
:1012700040020A60002300F1500C00208CF80000AE
:10128000184610BD022300208CF80000184610BD3F
:10129000006843F60001C4F20001884218BF70479D
:1012A00040F28001C2F2000101F118000131142264
:1012B000FFF744BF2DE9F04182B0044690F850009A
:1012C000012803D1022002B0BDE8F08101201D46B3
:1012D00016460F4684F85000FFF760FA94F8511054
:1012E00001290DD18046002F4FF0010018BF002EBC
:1012F0000ED1002184F8501002B0BDE8F08100BF8B
:101300000220002184F8501002B0BDE8F08100BF37
:101310000320002184F8510061652763A686E686D4
:10132000A163A187E187A0682164B0F5004F206820
:10133000616407D1016821F040010160016841F456
:10134000804101600168490603D4016841F0400111
:1013500001606168731EE268B1FA81F1B3FA83F348
:1013600049095B09B2F5006F41EA03013CD131B193
:1013700037F8021BC1602763E08E0138E086E08EFB
:1013800000286BD0681C0CD11DE000BF216B31F828
:10139000022BC2602163E08E0138E086E08E0028D7
:1013A0005CD0206881688907F0D4FFF7F7F9A0EBDB
:1013B0000800A842F2D3032071E000BFFFF7EEF966
:1013C000E08E00284AD0206881688907F6D5216B15
:1013D00031F8022BC2602163E08E0138E086E08E96
:1013E0000028F0D13AE000BF39B139780173206BA1
:1013F00001302063E08E0138E086E08E70B3681C17
:101400000BD11BE0216B09780173206B0130206345
:10141000E08E0138E086E08E00B32068816889079D
:10142000F0D4FFF7BBF9A0EB0800A842F3D30320E8
:1014300035E000BFFFF7B2F9E08E78B1206881682F
:101440008907F7D5216B09780173206B0130206380
:10145000E08E0138E086E08E0028EFD12046802122
:101460002A46434600F0A4F928B1606D40F0200000
:10147000606520206065A06838B900200190206870
:10148000C1680191806801900198606D30B10120C0
:10149000002184F8501002B0BDE8F0810020012145
:1014A00084F85110002184F8501002B0BDE8F0819A
:1014B00070470000411E0020B0EB116F1CBF0120DF
:1014C00070474EF21002CEF2000251604EF62351E8
:1014D000CEF20001F0230B7007219060116070477D
:1014E000FEE70000FEE70000FEE700007047000096
:1014F00040F2F000C2F20000FFF7CABC40F29800D0
:10150000C2F20000FFF7C4BC0168826BCB6822F80E
:10151000023B8263C28F013AC287C28F002A18BF82
:1015200070474A6822F040024A60C18E002908BF15
:1015300000F04EB8704700000168097B826B1170A3
:10154000816B01318163C18F0139C187C18F00294E
:1015500018BF704701684A6822F060024A60C18E75
:10156000002908BF00F034B870470000026B016822
:1015700032F8023BCB600263C28E013AC286C28E51
:10158000002A18BF70474A6822F080024A60C18F63
:10159000002908BF00F01CB870470000016B02680A
:1015A00009781173016B01310163C18E0139C18664
:1015B000C18E002918BF704701684A6822F0800276
:1015C0004A60C18F002908BF00F002B870470000D0
:1015D00010B582B040F20801C2F20001096841F67C
:1015E000F112C0F27652A1FB02120446500A6421A5
:1015F00048430190FFF7D2F8216803464A6822F079
:10160000200048600198F8B101980138019088687D
:1016100080071DD40198B8B10198013801908868FD
:10162000800715D4019878B1019801380190886835
:1016300080070DD4019838B101980138019088686D
:101640008007DFD504E000BF606D40F020006065DA
:1016500020468021642200F0ABF838B1606D40F084
:1016600020006065606D40F020006065A06858B1A2
:10167000606DA0B10121204684F8511002B0BDE890
:101680001040FFF703BC00BF002000902068C16835
:101690000091806800900098606D0028EAD194F86D
:1016A000510001210428204684F8511004D102B0D1
:1016B000BDE81040FFF7ECBD02B0BDE81040FFF7F9
:1016C000F7BE000010B582B004460068416821F002
:1016D00060014160FFF762F861680346B1F5827FFF
:1016E00016D1A068B0F5004F02D0B0F5806F0FD1D1
:1016F0002168B0F5806F0A6822F040020A6007D1C5
:1017000020460121642200F053F838B90EE000BFF2
:1017100020468021642200F04BF838B1606D40F023
:1017200020006065606D40F020006065A06838B9F9
:10173000002001902068C1680191806801900198A3
:10174000012084F85100606D30B1204602B0BDE840
:101750001040FFF79BBB00BF204602B0BDE8104021
:10176000FFF796BD406A0021C187C186FFF78EBB97
:101770000168826BC96822F8021B8263C18F01393C
:10178000C187C18F002918BF7047FFF79BBF0000BA
:101790000168097B826B1170816B01318163C18F9C
:1017A0000139C187C18F002918BF7047FFF78ABF71
:1017B0002DE9F04182B01E4690460D460446FEF7E4
:1017C000EDFF301A00EB0807FEF7E8FF40F20801D2
:1017D000C2F200010968C1F3CB317943019121685C
:1017E0008A682A40AA4227D1064618F101001FD074
:1017F000FEF7D4FF801BB84222D20198019900283D
:10180000A1F1010101912168896808BF074601EA39
:101810000500A842ECD00FE088682840A8420BD110
:1018200088682840A84207D188682840A84203D188
:1018300088682840A842EFD0002002B0BDE8F081BF
:10184000D4E900014268B1F5827F22F0E0024260F3
:101850000AD1A168B1F5004F02D0B1F5806F03D174
:10186000016821F040010160A16AB1F5005F07D174
:10187000016821F400510160016841F400510160E8
:10188000012084F85100002084F85000032002B0A9
:10189000BDE8F08170470000FEF786BF704700008A
:1018A000FEE7000090B0FEF78DFF06AC201D24215E
:1018B000FEF712FD0220069001200A9010200B90E6
:1018C000002520460D95FFF707F928B1EFF31080AA
:1018D00072B600BFFEE700BF0F20CDE9010501A8E9
:1018E0000021CDE903550595FFF716F820B1EFF378
:1018F000108072B6FEE700BF41F21800C4F2020089
:10190000016840F6000441F0040101600168C4F27E
:10191000010401F00401069106990168012241F0D9
:10192000080101600068102100F008000690069888
:10193000204610250126FEF72BFF0220CDE9065692
:101940000026099006A920460896FEF713FE40F2ED
:10195000F00004F52051C2F200004FF400730A2792
:101960004FF4827280E84600C0E90366C0E905636F
:10197000C561C0E90866C0E90A67FFF70DFB28B139
:10198000EFF3108072B600BFFEE700BF40F28005A3
:10199000C2F20005A4F55041284640F8181FC0E9DE
:1019A0000166C0E90366C0E90566C0E90866C0E9EA
:1019B0000A67FFF7F1FA28B1EFF3108072B600BFA3
:1019C000FEE700BF40F2F00840F20C06C2F2000849
:1019D000C2F200064046314614226423FFF76AFC37
:1019E00005F11800691C1422FFF7A8FB0FA700BF20
:1019F0002A7830463946FEF7EBFB204610210022BC
:101A0000FEF7C6FE4046314614224FF47A73FFF7C4
:101A100051FC204610210122FEF7BAFE2878013041
:101A200028704FF47A70FEF791FDE1E74775692061
:101A30006C616E207468753A202564200A000000ED
:101A4000000000000000000001020304060708096E
:101A5000010202030405060708090A0B0C0D0E0F0C
:101A600010100000881A000800000020200000006C
:101A700028010008A81A00082000002030070000F4
:101A800044010008000000000100000010000000F8
:101A90000024F4004D61737465722073656E6400F8
:081AA00000000000000000003E
:04000005080000ED02
:00000001FF
